{
  "_format": "hh-sol-artifact-1",
  "contractName": "Bank",
  "sourceName": "contracts/Bank.sol",
  "abi": [
    {
      "inputs": [],
      "stateMutability": "nonpayable",
      "type": "constructor"
    },
    {
      "inputs": [
        {
          "internalType": "address",
          "name": "",
          "type": "address"
        },
        {
          "internalType": "bytes32",
          "name": "",
          "type": "bytes32"
        }
      ],
      "name": "balances",
      "outputs": [
        {
          "internalType": "uint256",
          "name": "",
          "type": "uint256"
        }
      ],
      "stateMutability": "view",
      "type": "function"
    },
    {
      "inputs": [
        {
          "internalType": "uint256",
          "name": "_amount",
          "type": "uint256"
        },
        {
          "internalType": "bytes32",
          "name": "symbol",
          "type": "bytes32"
        }
      ],
      "name": "depositTokens",
      "outputs": [],
      "stateMutability": "nonpayable",
      "type": "function"
    },
    {
      "inputs": [
        {
          "internalType": "bytes32",
          "name": "_symbol",
          "type": "bytes32"
        }
      ],
      "name": "getTokenBalance",
      "outputs": [
        {
          "internalType": "uint256",
          "name": "",
          "type": "uint256"
        }
      ],
      "stateMutability": "view",
      "type": "function"
    },
    {
      "inputs": [],
      "name": "getWhitelistedSymbols",
      "outputs": [
        {
          "internalType": "bytes32[]",
          "name": "",
          "type": "bytes32[]"
        }
      ],
      "stateMutability": "view",
      "type": "function"
    },
    {
      "inputs": [
        {
          "internalType": "bytes32",
          "name": "_symbol",
          "type": "bytes32"
        }
      ],
      "name": "getWhitelistedTokenAddress",
      "outputs": [
        {
          "internalType": "address",
          "name": "",
          "type": "address"
        }
      ],
      "stateMutability": "view",
      "type": "function"
    },
    {
      "inputs": [
        {
          "internalType": "bytes32",
          "name": "symbol",
          "type": "bytes32"
        },
        {
          "internalType": "address",
          "name": "tokenAddress",
          "type": "address"
        }
      ],
      "name": "whitelistToken",
      "outputs": [],
      "stateMutability": "nonpayable",
      "type": "function"
    },
    {
      "inputs": [
        {
          "internalType": "uint256",
          "name": "",
          "type": "uint256"
        }
      ],
      "name": "whitelistedSymbols",
      "outputs": [
        {
          "internalType": "bytes32",
          "name": "",
          "type": "bytes32"
        }
      ],
      "stateMutability": "view",
      "type": "function"
    },
    {
      "inputs": [
        {
          "internalType": "bytes32",
          "name": "",
          "type": "bytes32"
        }
      ],
      "name": "whitelistedTokens",
      "outputs": [
        {
          "internalType": "address",
          "name": "",
          "type": "address"
        }
      ],
      "stateMutability": "view",
      "type": "function"
    },
    {
      "inputs": [
        {
          "internalType": "uint256",
          "name": "_amount",
          "type": "uint256"
        }
      ],
      "name": "withdrawEther",
      "outputs": [],
      "stateMutability": "nonpayable",
      "type": "function"
    },
    {
      "inputs": [
        {
          "internalType": "uint256",
          "name": "_amount",
          "type": "uint256"
        },
        {
          "internalType": "bytes32",
          "name": "_symbol",
          "type": "bytes32"
        }
      ],
      "name": "withdrawTokens",
      "outputs": [],
      "stateMutability": "nonpayable",
      "type": "function"
    },
    {
      "stateMutability": "payable",
      "type": "receive"
    }
  ],
  "bytecode": "0x608060405234801561001057600080fd5b50336000806101000a81548173ffffffffffffffffffffffffffffffffffffffff021916908373ffffffffffffffffffffffffffffffffffffffff160217905550611120806100606000396000f3fe6080604052600436106100955760003560e01c806388db6ac61161005957806388db6ac61461021f5780638f97994b1461025c578063aa3d9a1514610285578063d15b223e146102c2578063e8812788146102eb57610123565b8063069fdaae146101285780631f14df69146101515780633bed33ce1461018e5780634762b976146101b75780634b1e4aa5146101f457610123565b366101235734600360003373ffffffffffffffffffffffffffffffffffffffff1673ffffffffffffffffffffffffffffffffffffffff16815260200190815260200160002060007f45746800000000000000000000000000000000000000000000000000000000008152602001908152602001600020600082825461011a9190610f83565b92505081905550005b600080fd5b34801561013457600080fd5b5061014f600480360381019061014a9190610b59565b610328565b005b34801561015d57600080fd5b5061017860048036038101906101739190610acb565b610435565b6040516101859190610f13565b60405180910390f35b34801561019a57600080fd5b506101b560048036038101906101b09190610b95565b61045a565b005b3480156101c357600080fd5b506101de60048036038101906101d99190610b95565b610644565b6040516101eb9190610e78565b60405180910390f35b34801561020057600080fd5b50610209610668565b6040516102169190610e56565b60405180910390f35b34801561022b57600080fd5b5061024660048036038101906102419190610b30565b6106c0565b6040516102539190610f13565b60405180910390f35b34801561026857600080fd5b50610283600480360381019061027e9190610bbe565b61071a565b005b34801561029157600080fd5b506102ac60048036038101906102a79190610b30565b6108d9565b6040516102b99190610ddb565b60405180910390f35b3480156102ce57600080fd5b506102e960048036038101906102e49190610bbe565b61090c565b005b3480156102f757600080fd5b50610312600480360381019061030d9190610b30565b610a3a565b60405161031f9190610ddb565b60405180910390f35b60008054906101000a900473ffffffffffffffffffffffffffffffffffffffff1673ffffffffffffffffffffffffffffffffffffffff163373ffffffffffffffffffffffffffffffffffffffff16146103b6576040517f08c379a00000000000000000000000000000000000000000000000000000000081526004016103ad90610ed3565b60405180910390fd5b6001829080600181540180825580915050600190039060005260206000200160009091909190915055806002600084815260200190815260200160002060006101000a81548173ffffffffffffffffffffffffffffffffffffffff021916908373ffffffffffffffffffffffffffffffffffffffff1602179055505050565b6003602052816000526040600020602052806000526040600020600091509150505481565b80600360003373ffffffffffffffffffffffffffffffffffffffff1673ffffffffffffffffffffffffffffffffffffffff16815260200190815260200160002060007f4574680000000000000000000000000000000000000000000000000000000000815260200190815260200160002054101561050d576040517f08c379a000000000000000000000000000000000000000000000000000000000815260040161050490610eb3565b60405180910390fd5b80600360003373ffffffffffffffffffffffffffffffffffffffff1673ffffffffffffffffffffffffffffffffffffffff16815260200190815260200160002060007f45746800000000000000000000000000000000000000000000000000000000008152602001908152602001600020600082825461058d9190610fd9565b9250508190555060003373ffffffffffffffffffffffffffffffffffffffff16826040516105ba90610dc6565b60006040518083038185875af1925050503d80600081146105f7576040519150601f19603f3d011682016040523d82523d6000602084013e6105fc565b606091505b5050905080610640576040517f08c379a000000000000000000000000000000000000000000000000000000000815260040161063790610ef3565b60405180910390fd5b5050565b6001818154811061065457600080fd5b906000526020600020016000915090505481565b606060018054806020026020016040519081016040528092919081815260200182805480156106b657602002820191906000526020600020905b8154815260200190600101908083116106a2575b5050505050905090565b6000600360003373ffffffffffffffffffffffffffffffffffffffff1673ffffffffffffffffffffffffffffffffffffffff1681526020019081526020016000206000838152602001908152602001600020549050919050565b81600360003373ffffffffffffffffffffffffffffffffffffffff1673ffffffffffffffffffffffffffffffffffffffff16815260200190815260200160002060008381526020019081526020016000205410156107ad576040517f08c379a00000000000000000000000000000000000000000000000000000000081526004016107a490610e93565b60405180910390fd5b81600360003373ffffffffffffffffffffffffffffffffffffffff1673ffffffffffffffffffffffffffffffffffffffff1681526020019081526020016000206000838152602001908152602001600020600082825461080d9190610fd9565b925050819055506002600082815260200190815260200160002060009054906101000a900473ffffffffffffffffffffffffffffffffffffffff1673ffffffffffffffffffffffffffffffffffffffff1663a9059cbb33846040518363ffffffff1660e01b8152600401610882929190610e2d565b602060405180830381600087803b15801561089c57600080fd5b505af11580156108b0573d6000803e3d6000fd5b505050506040513d601f19601f820116820180604052508101906108d49190610b07565b505050565b60026020528060005260406000206000915054906101000a900473ffffffffffffffffffffffffffffffffffffffff1681565b81600360003373ffffffffffffffffffffffffffffffffffffffff1673ffffffffffffffffffffffffffffffffffffffff1681526020019081526020016000206000838152602001908152602001600020600082825461096c9190610f83565b925050819055506002600082815260200190815260200160002060009054906101000a900473ffffffffffffffffffffffffffffffffffffffff1673ffffffffffffffffffffffffffffffffffffffff166323b872dd3330856040518463ffffffff1660e01b81526004016109e393929190610df6565b602060405180830381600087803b1580156109fd57600080fd5b505af1158015610a11573d6000803e3d6000fd5b505050506040513d601f19601f82011682018060405250810190610a359190610b07565b505050565b60006002600083815260200190815260200160002060009054906101000a900473ffffffffffffffffffffffffffffffffffffffff169050919050565b600081359050610a868161108e565b92915050565b600081519050610a9b816110a5565b92915050565b600081359050610ab0816110bc565b92915050565b600081359050610ac5816110d3565b92915050565b60008060408385031215610ade57600080fd5b6000610aec85828601610a77565b9250506020610afd85828601610aa1565b9150509250929050565b600060208284031215610b1957600080fd5b6000610b2784828501610a8c565b91505092915050565b600060208284031215610b4257600080fd5b6000610b5084828501610aa1565b91505092915050565b60008060408385031215610b6c57600080fd5b6000610b7a85828601610aa1565b9250506020610b8b85828601610a77565b9150509250929050565b600060208284031215610ba757600080fd5b6000610bb584828501610ab6565b91505092915050565b60008060408385031215610bd157600080fd5b6000610bdf85828601610ab6565b9250506020610bf085828601610aa1565b9150509250929050565b6000610c068383610c7f565b60208301905092915050565b610c1b8161100d565b82525050565b6000610c2c82610f3e565b610c368185610f56565b9350610c4183610f2e565b8060005b83811015610c72578151610c598882610bfa565b9750610c6483610f49565b925050600181019050610c45565b5085935050505092915050565b610c888161102b565b82525050565b610c978161102b565b82525050565b6000610caa601383610f72565b91507f496e73756666696369656e7420416d6f756e74000000000000000000000000006000830152602082019050919050565b6000610cea601283610f72565b91507f496e73756666696369656e742066756e647300000000000000000000000000006000830152602082019050919050565b6000610d2a601683610f72565b91507f546869732066786e206973206e6f74205075626c6963000000000000000000006000830152602082019050919050565b6000610d6a600083610f67565b9150600082019050919050565b6000610d84601283610f72565b91507f5472616e73616374696f6e204661696c656400000000000000000000000000006000830152602082019050919050565b610dc081611055565b82525050565b6000610dd182610d5d565b9150819050919050565b6000602082019050610df06000830184610c12565b92915050565b6000606082019050610e0b6000830186610c12565b610e186020830185610c12565b610e256040830184610db7565b949350505050565b6000604082019050610e426000830185610c12565b610e4f6020830184610db7565b9392505050565b60006020820190508181036000830152610e708184610c21565b905092915050565b6000602082019050610e8d6000830184610c8e565b92915050565b60006020820190508181036000830152610eac81610c9d565b9050919050565b60006020820190508181036000830152610ecc81610cdd565b9050919050565b60006020820190508181036000830152610eec81610d1d565b9050919050565b60006020820190508181036000830152610f0c81610d77565b9050919050565b6000602082019050610f286000830184610db7565b92915050565b6000819050602082019050919050565b600081519050919050565b6000602082019050919050565b600082825260208201905092915050565b600081905092915050565b600082825260208201905092915050565b6000610f8e82611055565b9150610f9983611055565b9250827fffffffffffffffffffffffffffffffffffffffffffffffffffffffffffffffff03821115610fce57610fcd61105f565b5b828201905092915050565b6000610fe482611055565b9150610fef83611055565b9250828210156110025761100161105f565b5b828203905092915050565b600061101882611035565b9050919050565b60008115159050919050565b6000819050919050565b600073ffffffffffffffffffffffffffffffffffffffff82169050919050565b6000819050919050565b7f4e487b7100000000000000000000000000000000000000000000000000000000600052601160045260246000fd5b6110978161100d565b81146110a257600080fd5b50565b6110ae8161101f565b81146110b957600080fd5b50565b6110c58161102b565b81146110d057600080fd5b50565b6110dc81611055565b81146110e757600080fd5b5056fea2646970667358221220126155ef19af78d8ddec5c99d55124d8c59a6e8b9febe794a417936c528b6fa264736f6c63430008000033",
  "linkReferences": {},
  "deployedLinkReferences": {}
}